{
  "contractName": "MetaCoin",
  "abi": [
    {
      "inputs": [],
      "payable": false,
      "stateMutability": "nonpayable",
      "type": "constructor"
    },
    {
      "anonymous": false,
      "inputs": [
        {
          "indexed": true,
          "name": "_from",
          "type": "address"
        },
        {
          "indexed": true,
          "name": "_to",
          "type": "address"
        },
        {
          "indexed": false,
          "name": "_value",
          "type": "uint256"
        }
      ],
      "name": "Transfer",
      "type": "event"
    },
    {
      "constant": false,
      "inputs": [
        {
          "name": "receiver",
          "type": "address"
        },
        {
          "name": "amount",
          "type": "uint256"
        }
      ],
      "name": "sendCoin",
      "outputs": [
        {
          "name": "sufficient",
          "type": "bool"
        }
      ],
      "payable": false,
      "stateMutability": "nonpayable",
      "type": "function"
    },
    {
      "constant": true,
      "inputs": [
        {
          "name": "addr",
          "type": "address"
        }
      ],
      "name": "getBalanceInEth",
      "outputs": [
        {
          "name": "",
          "type": "uint256"
        }
      ],
      "payable": false,
      "stateMutability": "view",
      "type": "function"
    },
    {
      "constant": true,
      "inputs": [
        {
          "name": "addr",
          "type": "address"
        }
      ],
      "name": "getBalance",
      "outputs": [
        {
          "name": "",
          "type": "uint256"
        }
      ],
      "payable": false,
      "stateMutability": "view",
      "type": "function"
    }
  ],
  "bytecode": "0x608060405234801561001057600080fd5b506127106000803273ffffffffffffffffffffffffffffffffffffffff1673ffffffffffffffffffffffffffffffffffffffff168152602001908152602001600020819055506103fc806100656000396000f300608060405260043610610057576000357c0100000000000000000000000000000000000000000000000000000000900463ffffffff1680637bd703e81461005c57806390b98a11146100b3578063f8b2cb4f14610118575b600080fd5b34801561006857600080fd5b5061009d600480360381019080803573ffffffffffffffffffffffffffffffffffffffff16906020019092919050505061016f565b6040518082815260200191505060405180910390f35b3480156100bf57600080fd5b506100fe600480360381019080803573ffffffffffffffffffffffffffffffffffffffff1690602001909291908035906020019092919050505061022f565b604051808215151515815260200191505060405180910390f35b34801561012457600080fd5b50610159600480360381019080803573ffffffffffffffffffffffffffffffffffffffff169060200190929190505050610388565b6040518082815260200191505060405180910390f35b600073__ConvertLib____________________________6396e4ee3d61019484610388565b60026040518363ffffffff167c0100000000000000000000000000000000000000000000000000000000028152600401808381526020018281526020019250505060206040518083038186803b1580156101ed57600080fd5b505af4158015610201573d6000803e3d6000fd5b505050506040513d602081101561021757600080fd5b81019080805190602001909291905050509050919050565b6000816000803373ffffffffffffffffffffffffffffffffffffffff1673ffffffffffffffffffffffffffffffffffffffff1681526020019081526020016000205410156102805760009050610382565b816000803373ffffffffffffffffffffffffffffffffffffffff1673ffffffffffffffffffffffffffffffffffffffff16815260200190815260200160002060008282540392505081905550816000808573ffffffffffffffffffffffffffffffffffffffff1673ffffffffffffffffffffffffffffffffffffffff168152602001908152602001600020600082825401925050819055508273ffffffffffffffffffffffffffffffffffffffff163373ffffffffffffffffffffffffffffffffffffffff167fddf252ad1be2c89b69c2b068fc378daa952ba7f163c4a11628f55a4df523b3ef846040518082815260200191505060405180910390a3600190505b92915050565b60008060008373ffffffffffffffffffffffffffffffffffffffff1673ffffffffffffffffffffffffffffffffffffffff1681526020019081526020016000205490509190505600a165627a7a72305820a843c919b0d001351c19d5859a4124326b68c376661931694e00c6c86caecb1d0029",
  "source": "pragma solidity ^0.4.18;\r\n\r\nimport \"./ConvertLib.sol\";\r\n\r\n// 这是一个简单的仿币合约的例子。它并不是标准的可兼容其他币或token的合约，\r\n// 如果你想创建一个标准兼容的token，请转到 https://github.com/ConsenSys/Tokens（TODO:一会儿我们再过去转）\r\n\r\ncontract MetaCoin {\r\n    mapping (address => uint) balances;// 定义了一个映射类型变量balances，key为address类型，值为无符整型，应该是用来存储每个账户的余额，可以存多个。\r\n\r\n    event Transfer(address indexed _from, address indexed _to, uint256 _value);// Solidity语法event，TODO:见下方详解。\r\n\r\n    function MetaCoin() public {// 构造函数，tx.origin查查上面，找到它会返回交易发送方的地址，也就是说合约实例创建时会默认为当前交易发送方的余额塞10000，单位应该是你的仿币。\r\n        balances[tx.origin] = 10000;\r\n    }\r\n\r\n    function sendCoin(address receiver, uint amount) public returns(bool sufficient) {// 函数声明部分没有盲点，方法名，参数列表，函数可见性，返回值类型定义。\r\n        if (balances[msg.sender] < amount) return false;// 如果余额不足，则返回发送币失败\r\n        balances[msg.sender] -= amount;// 否则从发送方余额中减去发送值，注意Solidity也有 “-=”，“+=” 的运算符哦\r\n        balances[receiver] += amount;// 然后在接收方的余额中加入发送值数量。\r\n        Transfer(msg.sender, receiver, amount);// 使用以上event关键字声明的方法\r\n        return true;\r\n    }\r\n\r\n    function getBalanceInEth(address addr) public view returns(uint){// 获取以太币余额\r\n        return ConvertLib.convert(getBalance(addr),2);// 调用了其他合约的方法，TODO:稍后介绍ConvertLib合约时说明。\r\n    }\r\n\r\n    function getBalance(address addr) public view returns(uint) {// 获取当前账户的仿币余额\r\n        return balances[addr];\r\n    }\r\n}",
  "sourcePath": "D:\\localCode\\truffle\\contracts\\MetaCoin.sol",
  "compiler": {
    "name": "solc",
    "version": "0.4.24+commit.e67f0147.Emscripten.clang"
  },
  "schemaVersion": "2.0.1",
  "updatedAt": "2018-10-05T13:31:45.380Z"
}